:1000000012C01FC01EC01DC01CC01BC01AC019C01A
:1000100018C017C016C015C014C02BC012C011C024
:1000200010C00FC00EC011241FBECFEDCDBF10E019
:10003000A0E6B0E001C01D92A236B107E1F702D000
:1000400042C0DECF1092610010926000E7E3F0E062
:100050008081816080838CE786BF92E090BFE8E575
:10006000F0E080818160808381E089BF93BF7894D4
:10007000FFCF1F920F920FB60F9211242F938F93E1
:100080009F93EF93FF9380916000909161000196A0
:100090009093610080936000885E934051F4E8E3A0
:1000A000F0E0808191E089278083109261001092B6
:1000B0006000FF91EF919F918F912F910F900FBE54
:0A00C0000F901F901895F894FFCFE1
:00000001FF
