:1000000012C022C021C020C01FC01EC01DC01CC005
:100010001BC01AC019C018C017C016C015C014C024
:1000200013C012C011C011241FBECFEDCDBF10E010
:10003000A0E6B0E0EEE7F1E002C005900D92A23735
:10004000B107D9F721D099C0DBCF92B989B988E03F
:100050008AB986E083B90895982FEBE2F0E08081B9
:1000600085FFFDCF9CB980E090E00895CF93DF93AA
:10007000EC018881882329F0EFDF2196888188238D
:10008000D9F7DF91CF910895CF92DF92EF92FF924F
:100090000F931F93DF93CF93CDB7DEB727970FB69C
:1000A000F894DEBF0FBECDBF8CE090E0CEDFE7E37B
:1000B000F0E080818160808385E3CEDF00E610E0A0
:1000C000C801D4DF82ED94E0BE016F5F7F4F4AE04C
:1000D00050E01BD0CBDFC801C9DF0F2EF3E6CF2ED7
:1000E000F0E0DF2EF02D0F2EF0E1EF2EF7E2FF2EE5
:1000F000F02D09E110E0C601B9DF9701C8010197B1
:10010000F1F721503040D1F7F6CFFB019F0142308B
:100110006CF045325CF4642F77271BD0805D8A3306
:100120000CF0895D8193CB010097A9F71082C9017A
:1001300000C0DC01FC01672F71917723E1F7329752
:1001400004C07C916D9370836291AE17BF07C8F3B2
:100150000895AA1BBB1B51E107C0AA1FBB1FA6170E
:10016000B70710F0A61BB70B881F991F5A95A9F760
:0E01700080959095BC01CD010895F894FFCFC5
:10017E000D0A0048656C6C6F204A616765720D0A46
:02018E0000006F
:00000001FF
