:1000000012C017C016C015C014C013C012C011C052
:1000100010C00FC00EC00DC00CC00BC00AC009C07C
:1000200008C007C006C011241FBECFEDCDBF18D039
:1000300029C0E6CFDF93CF9300D0CDB7DEB780E401
:100040009CE99A83898329813A81C90101979A831E
:100050008983232BC1F70F900F90CF91DF910895E3
:10006000CF93DF93E7E3F0E0808181608083C8E392
:10007000D0E088818E7F8883DDDF888181608883FE
:08008000D9DFF7CFF894FFCFA0
:00000001FF
